{
  "contractName": "GradePortal",
  "abi": [
    {
      "inputs": [],
      "payable": false,
      "stateMutability": "nonpayable",
      "type": "constructor"
    },
    {
      "constant": true,
      "inputs": [
        {
          "internalType": "string",
          "name": "",
          "type": "string"
        }
      ],
      "name": "Key",
      "outputs": [
        {
          "internalType": "uint256",
          "name": "",
          "type": "uint256"
        }
      ],
      "payable": false,
      "stateMutability": "view",
      "type": "function"
    },
    {
      "constant": true,
      "inputs": [],
      "name": "noOfStudents",
      "outputs": [
        {
          "internalType": "uint256",
          "name": "",
          "type": "uint256"
        }
      ],
      "payable": false,
      "stateMutability": "view",
      "type": "function"
    },
    {
      "constant": true,
      "inputs": [
        {
          "internalType": "uint256",
          "name": "",
          "type": "uint256"
        }
      ],
      "name": "students",
      "outputs": [
        {
          "internalType": "uint256",
          "name": "sId",
          "type": "uint256"
        },
        {
          "internalType": "address",
          "name": "addrs",
          "type": "address"
        },
        {
          "internalType": "string",
          "name": "rollNo",
          "type": "string"
        },
        {
          "internalType": "string",
          "name": "name",
          "type": "string"
        },
        {
          "internalType": "string",
          "name": "grade",
          "type": "string"
        },
        {
          "internalType": "string",
          "name": "publicKey",
          "type": "string"
        }
      ],
      "payable": false,
      "stateMutability": "view",
      "type": "function"
    },
    {
      "constant": false,
      "inputs": [
        {
          "internalType": "address",
          "name": "addrs",
          "type": "address"
        },
        {
          "internalType": "string",
          "name": "name",
          "type": "string"
        },
        {
          "internalType": "string",
          "name": "rollNo",
          "type": "string"
        },
        {
          "internalType": "string",
          "name": "publicKey",
          "type": "string"
        }
      ],
      "name": "addStudent",
      "outputs": [],
      "payable": false,
      "stateMutability": "nonpayable",
      "type": "function"
    },
    {
      "constant": false,
      "inputs": [
        {
          "internalType": "string",
          "name": "rollNo",
          "type": "string"
        },
        {
          "internalType": "string",
          "name": "grade",
          "type": "string"
        }
      ],
      "name": "setGrade",
      "outputs": [],
      "payable": false,
      "stateMutability": "nonpayable",
      "type": "function"
    },
    {
      "constant": true,
      "inputs": [
        {
          "internalType": "string",
          "name": "publicKey",
          "type": "string"
        }
      ],
      "name": "showGrade",
      "outputs": [
        {
          "internalType": "string",
          "name": "",
          "type": "string"
        }
      ],
      "payable": false,
      "stateMutability": "view",
      "type": "function"
    }
  ],
  "bytecode": "0x608060405234801561001057600080fd5b5060008081905550610df9806100276000396000f3fe608060405234801561001057600080fd5b50600436106100625760003560e01c806306ead22e146100675780632c418d981461009c57806330dc1553146100cc578063479955c8146100ea5780636bb5438814610106578063cf9f499914610136575b600080fd5b610081600480360361007c9190810190610a87565b610152565b60405161009396959493929190610bc5565b60405180910390f35b6100b660048036036100b191908101906109da565b61040e565b6040516100c39190610b88565b60405180910390f35b6100d46104e4565b6040516100e19190610baa565b60405180910390f35b61010460048036036100ff9190810190610a1b565b6104ea565b005b610120600480360361011b9190810190610999565b610537565b60405161012d9190610baa565b60405180910390f35b610150600480360361014b91908101906108ee565b610565565b005b60016020528060005260406000206000915090508060000154908060010160009054906101000a900473ffffffffffffffffffffffffffffffffffffffff1690806002018054600181600116156101000203166002900480601f01602080910402602001604051908101604052809291908181526020018280546001816001161561010002031660029004801561022a5780601f106101ff5761010080835404028352916020019161022a565b820191906000526020600020905b81548152906001019060200180831161020d57829003601f168201915b505050505090806003018054600181600116156101000203166002900480601f0160208091040260200160405190810160405280929190818152602001828054600181600116156101000203166002900480156102c85780601f1061029d576101008083540402835291602001916102c8565b820191906000526020600020905b8154815290600101906020018083116102ab57829003601f168201915b505050505090806004018054600181600116156101000203166002900480601f0160208091040260200160405190810160405280929190818152602001828054600181600116156101000203166002900480156103665780601f1061033b57610100808354040283529160200191610366565b820191906000526020600020905b81548152906001019060200180831161034957829003601f168201915b505050505090806005018054600181600116156101000203166002900480601f0160208091040260200160405190810160405280929190818152602001828054600181600116156101000203166002900480156104045780601f106103d957610100808354040283529160200191610404565b820191906000526020600020905b8154815290600101906020018083116103e757829003601f168201915b5050505050905086565b6060600160006002846040516104249190610b71565b90815260200160405180910390205481526020019081526020016000206004018054600181600116156101000203166002900480601f0160208091040260200160405190810160405280929190818152602001828054600181600116156101000203166002900480156104d85780601f106104ad576101008083540402835291602001916104d8565b820191906000526020600020905b8154815290600101906020018083116104bb57829003601f168201915b50505050509050919050565b60005481565b80600160006002856040516104ff9190610b71565b908152602001604051809103902054815260200190815260200160002060040190805190602001906105329291906106f7565b505050565b6002818051602081018201805184825260208301602085012081835280955050505050506000915090505481565b60008081548092919060010191905055506000546002826040516105899190610b71565b9081526020016040518091039020819055506040518060c0016040528060005481526020018573ffffffffffffffffffffffffffffffffffffffff1681526020018481526020018381526020018281526020016040518060400160405280600281526020017f4e4100000000000000000000000000000000000000000000000000000000000081525081525060016000805481526020019081526020016000206000820151816000015560208201518160010160006101000a81548173ffffffffffffffffffffffffffffffffffffffff021916908373ffffffffffffffffffffffffffffffffffffffff1602179055506040820151816002019080519060200190610696929190610777565b5060608201518160030190805190602001906106b3929190610777565b5060808201518160040190805190602001906106d0929190610777565b5060a08201518160050190805190602001906106ed929190610777565b5090505050505050565b828054600181600116156101000203166002900490600052602060002090601f016020900481019282601f1061073857805160ff1916838001178555610766565b82800160010185558215610766579182015b8281111561076557825182559160200191906001019061074a565b5b50905061077391906107f7565b5090565b828054600181600116156101000203166002900490600052602060002090601f016020900481019282601f106107b857805160ff19168380011785556107e6565b828001600101855582156107e6579182015b828111156107e55782518255916020019190600101906107ca565b5b5090506107f391906107f7565b5090565b61081991905b808211156108155760008160009055506001016107fd565b5090565b90565b60008135905061082b81610d88565b92915050565b600082601f83011261084257600080fd5b813561085561085082610c6f565b610c42565b9150808252602083016020830185838301111561087157600080fd5b61087c838284610d35565b50505092915050565b600082601f83011261089657600080fd5b81356108a96108a482610c9b565b610c42565b915080825260208301602083018583830111156108c557600080fd5b6108d0838284610d35565b50505092915050565b6000813590506108e881610d9f565b92915050565b6000806000806080858703121561090457600080fd5b60006109128782880161081c565b945050602085013567ffffffffffffffff81111561092f57600080fd5b61093b87828801610885565b935050604085013567ffffffffffffffff81111561095857600080fd5b61096487828801610885565b925050606085013567ffffffffffffffff81111561098157600080fd5b61098d87828801610885565b91505092959194509250565b6000602082840312156109ab57600080fd5b600082013567ffffffffffffffff8111156109c557600080fd5b6109d184828501610831565b91505092915050565b6000602082840312156109ec57600080fd5b600082013567ffffffffffffffff811115610a0657600080fd5b610a1284828501610885565b91505092915050565b60008060408385031215610a2e57600080fd5b600083013567ffffffffffffffff811115610a4857600080fd5b610a5485828601610885565b925050602083013567ffffffffffffffff811115610a7157600080fd5b610a7d85828601610885565b9150509250929050565b600060208284031215610a9957600080fd5b6000610aa7848285016108d9565b91505092915050565b610ab981610cf9565b82525050565b6000610aca82610cd2565b610ad48185610cdd565b9350610ae4818560208601610d44565b610aed81610d77565b840191505092915050565b6000610b0382610cd2565b610b0d8185610cee565b9350610b1d818560208601610d44565b80840191505092915050565b6000610b3482610cc7565b610b3e8185610cdd565b9350610b4e818560208601610d44565b610b5781610d77565b840191505092915050565b610b6b81610d2b565b82525050565b6000610b7d8284610af8565b915081905092915050565b60006020820190508181036000830152610ba28184610abf565b905092915050565b6000602082019050610bbf6000830184610b62565b92915050565b600060c082019050610bda6000830189610b62565b610be76020830188610ab0565b8181036040830152610bf98187610b29565b90508181036060830152610c0d8186610b29565b90508181036080830152610c218185610b29565b905081810360a0830152610c358184610b29565b9050979650505050505050565b6000604051905081810181811067ffffffffffffffff82111715610c6557600080fd5b8060405250919050565b600067ffffffffffffffff821115610c8657600080fd5b601f19601f8301169050602081019050919050565b600067ffffffffffffffff821115610cb257600080fd5b601f19601f8301169050602081019050919050565b600081519050919050565b600081519050919050565b600082825260208201905092915050565b600081905092915050565b6000610d0482610d0b565b9050919050565b600073ffffffffffffffffffffffffffffffffffffffff82169050919050565b6000819050919050565b82818337600083830152505050565b60005b83811015610d62578082015181840152602081019050610d47565b83811115610d71576000848401525b50505050565b6000601f19601f8301169050919050565b610d9181610cf9565b8114610d9c57600080fd5b50565b610da881610d2b565b8114610db357600080fd5b5056fea365627a7a7231582034a6177e4720a076ab176413f65edfa921dae13a4f4e0242a03ad6475a88e1fd6c6578706572696d656e74616cf564736f6c63430005100040",
  "source": "// SPDX-License-Identifier: MIT\r\npragma experimental ABIEncoderV2;\r\npragma solidity >=0.4.22 <0.8.0;\r\n\r\n// import <\"StringUtils\">;\r\n\r\n// import \"github.com/Arachnid/solidity-stringutils/strings.sol\";\r\n\r\ncontract GradePortal \r\n{\r\n\r\n    //Store Student Info\r\n    //Read Student Info\r\n    //Constructor\r\n\r\n    struct studentInfo \r\n    {\r\n        uint sId;    \r\n        address addrs;\r\n        string rollNo;\r\n        string name;\r\n        string grade;\r\n        string publicKey;\r\n    }\r\n\r\n    uint public noOfStudents;\r\n\r\n    // studentInfo[10] public studentList;\r\n    \r\n    // mapping(uint => studentInfo) public students;\r\n    mapping(uint => studentInfo) public students;\r\n    mapping(string => uint) public Key;\r\n\r\n    constructor () public\r\n    {\r\n        //add necessary constructor code here\r\n        noOfStudents = 0;\r\n    }\r\n    \r\n    // function getStudents() public view returns (studentInfo [10] memory) \r\n    // {\r\n    //     return studentList;\r\n    // }\r\n\r\n    function addStudent (address addrs, string memory name, string memory rollNo,string memory publicKey) public\r\n    {\r\n        noOfStudents++;\r\n        // students[noOfStudents] = studentInfo(noOfStudents,addrs, name, rollNo, \"NA\");\r\n        Key[publicKey] = noOfStudents;\r\n        students[noOfStudents] = studentInfo(noOfStudents,addrs, name, rollNo, publicKey, \"NA\");\r\n    }\r\n\r\n    function setGrade (string memory rollNo, string memory grade) public \r\n    {\r\n\r\n        students[Key[rollNo]].grade = grade;\r\n\r\n        // for (uint256 index = 0; index < noOfStudents; index++) {\r\n            // if ((StringUtils.equal(students[noOfStudents].rollNo == rollNo))) {\r\n                 \r\n                // students[roll[rollNo]].grade = grade;\r\n                // students[noOfStudents].rollNo = rollNo;\r\n            // } \r\n        // }\r\n    }\r\n\r\n    function showGrade (string memory publicKey) view public returns (string memory)\r\n    {\r\n        \r\n        return students[Key[publicKey]].grade;\r\n    }\r\n\r\n}",
  "sourcePath": "F:/study/Semester 8/Cybersecurity/Assignment 2/Truffle Pet-Shop/contracts/GradePortal.sol",
  "compiler": {
    "name": "solc",
    "version": "0.5.16+commit.9c3226ce.Emscripten.clang"
  },
  "schemaVersion": "3.3.4",
  "updatedAt": "2021-02-21T18:20:17.092Z",
  "networkType": "ethereum",
  "devdoc": {
    "methods": {}
  },
  "userdoc": {
    "methods": {}
  }
}